:020000040000FA
:020000000328D3
:040002000034003492
:0A000600831203138501831603170C
:100010008801890183160313850186018701880100
:10002000890100308700FF308800031383128501A7
:100030008601870188018901B401B501A501A601E6
:10004000A701A801A901B001B101B201B601B70130
:10005000B801B901C001C101C201C301B30105105A
:100060000130860085142E2385102E230C30860047
:1000700085142E2385102E233C30860085142E23D4
:1000800085102E234C2038231421CF204121F52028
:1000900049286B215C22462805102E2383308600D8
:1000A000292305142E234230860029234930860057
:1000B00029234530860029234E30860029235630D7
:1000C000860029234530860029234E3086002923C7
:1000D0004930860029234430860029234F3086008A
:1000E000292305102E2392308600292305142E2360
:1000F0002A30860029234330860029234F3086008A
:1001000029234E308600292354308600292352307B
:10011000860029234F30860029234E30860029236C
:100120002030860029234A30860029234730860064
:1001300029232A308600292305102E23D230860059
:10014000292305142E234930860029234E308600AA
:10015000292349308600292343308600292349304A
:10016000860029234130860029234E30860029232A
:100170004430860029234F30860029232030860012
:1001800029232E30860029232E30860029232E3065
:100190008600292307108714881808004C230510AF
:1001A0002E2390308600292305142E2350308600FC
:1001B00029234130860029235330860029235330D8
:1001C000860029235730860029234F3086002923B3
:1001D0005230860029234430860029233A30860095
:1001E0002923203086002923080005102E23C8303B
:1001F0008600292305142E232A30860029232A303D
:10020000860029232A30860029232A3086002923C4
:100210002A30860029232A30860029232A308600A6
:1002200029232A308600292305102E2380308600BA
:10023000292305142E234330860029234C308600C1
:100240002923413086002923563086002923453052
:10025000860029233A30860029232030860029236E
:10026000080005102E23C8308600292305142E23EC
:10027000080005102E23D8308600292305142E23CC
:10028000080031219521341C42293308B6009521FC
:10029000341C47293308B7009521341C4C293308F6
:1002A000B8009521341C51293308B9009521341C1C
:1002B00056293308C0009521341C5B293308C1003E
:1002C0009521341C60293308C2009521341C65290E
:1002D0003308C300080039219521341C6C293308E8
:1002E000A5009521341C71293308A6009521341CE2
:1002F00076293308A7009521341C7B293308A800F0
:100300009521341C80293308A9009521341C8529A6
:100310003308B0009521341C8A293308B100952197
:10032000341C8F293308B200080034100714081851
:10033000C721071087140818D0218710071508183F
:10034000D921071107148818E2210710871488188B
:10035000EB21871007158818F421071107140819D5
:10036000FD210710871408190622871007150819A0
:100370000F220711071488192D22071087148819D6
:10038000182287100715881921220711080001304B
:10039000B30031308600292334140818CD29080011
:1003A0000230B30032308600292334140818D629CD
:1003B00008000330B30033308600292334140818B2
:1003C000DF2908000430B3003430860029233414B8
:1003D0008818E82908000530B30035308600292345
:1003E00034148818F12908000630B300363086002E
:1003F000292334148818FA2908000730B30037304D
:100400008600292334140819032A08000830B30091
:10041000383086002923341408190C2A08000930C2
:10042000B30039308600292334140819152A08002E
:100430000030B300303086002923341488191E2A76
:1004400008002E22B401B501A501A601A701A8014B
:10045000A901B001B101B2014928080005102E23FD
:10046000D8308600292305142E2320308600292326
:100470002030860029232030860029232030860062
:10048000292320308600292320308600292320308C
:100490008600292320308600292308003823CF2016
:1004A0001421F5206B2908002A3086002923080032
:1004B000331C240DA40D08003608B3002506031DC7
:1004C000DA223708B3002606031DDA223808B30003
:1004D0002706031DDA223908B3002806031DDA2295
:1004E0004008B3002906031DDA224108B300300694
:1004F000031DDA224208B3003106031DDA22430845
:10050000B3003206031DDA228622080038230130A8
:10051000890005102E23C1308600292305142E23BF
:10052000503086002923413086002923533086002D
:1005300029234530860029234C3086002923453065
:100540008600292320308600292355308600292360
:1005500053308600292354308600292345308600F5
:10056000292344308600292305102E23913086004C
:10057000292305142E234230860029234530860086
:1005800029234E3086002923563086002923453002
:10059000860029234E3086002923553086002923E2
:1005A00054308600292345308600292307148819F2
:1005B0004E2A872A38230230890005102E23C130A5
:1005C0008600292305142E234E308600292345302A
:1005D000860029234C3086002923203086002923D9
:1005E000503086002923413086002923533086006D
:1005F0005430860029234530860029234C3086005C
:10060000292305102E2391308600292305142E233B
:10061000533086002923413086002923513086003B
:10062000292355308600292345308600292353305D
:1006300086002923453086002923071488194E2A6D
:10064000DB2A05102E2388308600292305142E234B
:10065000080085142E2385102E230800A2010A30DD
:10066000A3005030A200A20B332BA30B312B0800A8
:1006700005100130860085142E2385102E230C30A2
:10068000860085142E2385102E233C308600851489
:100690002E2385102E2308002530C700C70B4E2BB4
:1006A000EF30C4000000EB30C50000001C30C60075
:0E06B000C60B582BC50B552BC40B522B080044
:02400E00F42C90
:02401000FF3F70
:00000001FF
